{
  "contractName": "OnlyToken",
  "abi": [
    {
      "inputs": [
        {
          "name": "_tokenAddress",
          "type": "address"
        }
      ],
      "payable": true,
      "stateMutability": "payable",
      "type": "constructor"
    },
    {
      "anonymous": false,
      "inputs": [
        {
          "indexed": false,
          "name": "addSender",
          "type": "address"
        },
        {
          "indexed": false,
          "name": "addThis",
          "type": "address"
        },
        {
          "indexed": false,
          "name": "amount",
          "type": "uint256"
        }
      ],
      "name": "Deposits",
      "type": "event"
    },
    {
      "constant": false,
      "inputs": [
        {
          "name": "_amount",
          "type": "uint256"
        }
      ],
      "name": "deposit",
      "outputs": [
        {
          "name": "",
          "type": "bool"
        }
      ],
      "payable": false,
      "stateMutability": "nonpayable",
      "type": "function"
    },
    {
      "constant": true,
      "inputs": [],
      "name": "showBalance",
      "outputs": [
        {
          "name": "",
          "type": "uint256"
        }
      ],
      "payable": false,
      "stateMutability": "view",
      "type": "function"
    }
  ],
  "bytecode": "0x606060405260405160208061029e8339810160405280805160008054600160a060020a03909216600160a060020a03199092169190911790555050610255806100496000396000f3006060604052600436106100325763ffffffff60e060020a60003504166381b2d07b8114610037578063b6b55f251461005c575b600080fd5b341561004257600080fd5b61004a610086565b60405190815260200160405180910390f35b341561006757600080fd5b610072600435610118565b604051901515815260200160405180910390f35b6000805473ffffffffffffffffffffffffffffffffffffffff166370a0823130836040516020015260405160e060020a63ffffffff841602815273ffffffffffffffffffffffffffffffffffffffff9091166004820152602401602060405180830381600087803b15156100f957600080fd5b6102c65a03f1151561010a57600080fd5b505050604051805191505090565b6000805473ffffffffffffffffffffffffffffffffffffffff166323b872dd333085856040516020015260405160e060020a63ffffffff861602815273ffffffffffffffffffffffffffffffffffffffff93841660048201529190921660248201526044810191909152606401602060405180830381600087803b151561019e57600080fd5b6102c65a03f115156101af57600080fd5b5050506040518051905015156101c457600080fd5b7f46af1b2e3219ad71ae260928443699c4d007f0931807f426b16888884104a81333308460405173ffffffffffffffffffffffffffffffffffffffff9384168152919092166020820152604080820192909252606001905180910390a15060019190505600a165627a7a723058206be070cd59c2b0d134ab1afe5e49a19ccdae0f6026dd216fb3d72116891185160029",
  "source": "pragma solidity ^0.4.11;\n\nimport \"./ERC20Interface.sol\";\n\ncontract OnlyToken\n{\n  event Deposits(address addSender, address addThis, uint256 amount);\n  ERC20 token;\n  //constructor\n  function OnlyToken(address _tokenAddress) public payable \n  {\n      token = ERC20(_tokenAddress);\n  }\n  // external\n  function deposit(uint256 _amount) public returns (bool)\n  {\n      require(token.transferFrom(msg.sender, address(this), _amount));\n      //m_accounts[msg.sender].stake = m_accounts[msg.sender].stake.add(_amount);\n      Deposits(msg.sender, this, _amount);\n      return true;\n  }\n\n  function showBalance() public view returns (uint)\n  {\n      return token.balanceOf(this);\n  }\n}\n",
  "sourcePath": "/home/hantong/Documents/kyber-integration-test/contracts/OnlyToken.sol",
  "compiler": {
    "name": "solc",
    "version": "0.4.19+commit.c4cbbb05.Emscripten.clang"
  },
  "schemaVersion": "2.0.0",
  "updatedAt": "2018-03-07T15:27:43.838Z"
}