{
  "contractName": "SwapEth",
  "abi": [
    {
      "payable": true,
      "stateMutability": "payable",
      "type": "fallback"
    },
    {
      "anonymous": false,
      "inputs": [
        {
          "indexed": false,
          "name": "value",
          "type": "uint256"
        },
        {
          "indexed": false,
          "name": "kyberInterfaceAddress",
          "type": "address"
        },
        {
          "indexed": false,
          "name": "srcToken",
          "type": "address"
        },
        {
          "indexed": false,
          "name": "srcAmount",
          "type": "uint256"
        },
        {
          "indexed": false,
          "name": "destToken",
          "type": "address"
        },
        {
          "indexed": false,
          "name": "thisAddress",
          "type": "address"
        },
        {
          "indexed": false,
          "name": "msgAddress",
          "type": "address"
        },
        {
          "indexed": false,
          "name": "amountReturn",
          "type": "uint256"
        }
      ],
      "name": "Swap",
      "type": "event"
    },
    {
      "constant": false,
      "inputs": [
        {
          "name": "_kyberInterfaceAddress",
          "type": "address"
        },
        {
          "name": "srcToken",
          "type": "address"
        },
        {
          "name": "srcAmount",
          "type": "uint256"
        },
        {
          "name": "destToken",
          "type": "address"
        },
        {
          "name": "maxDestAmount",
          "type": "uint256"
        },
        {
          "name": "minConversionRate",
          "type": "uint256"
        },
        {
          "name": "walletId",
          "type": "address"
        },
        {
          "name": "onlyTokenAddress",
          "type": "address"
        }
      ],
      "name": "swapEthOnKyber",
      "outputs": [],
      "payable": true,
      "stateMutability": "payable",
      "type": "function"
    },
    {
      "constant": false,
      "inputs": [
        {
          "name": "onlyTokenAddress",
          "type": "address"
        },
        {
          "name": "destToken",
          "type": "address"
        },
        {
          "name": "maxDestAmount",
          "type": "uint256"
        }
      ],
      "name": "approveOnlyToken",
      "outputs": [],
      "payable": false,
      "stateMutability": "nonpayable",
      "type": "function"
    }
  ],
  "bytecode": "0x6060604052341561000f57600080fd5b6102e58061001e6000396000f3006060604052600436106100325763ffffffff60e060020a6000350416638f6ed0438114610034578063d5e4e6451461006c575b005b610032600160a060020a03600435811690602435811690604435906064358116906084359060a4359060c43581169060e43516610094565b341561007757600080fd5b610032600160a060020a036004358116906024351660443561022f565b87816000600160a060020a03831663cb3c28c7348c8c8c308d8d8d8a6040516020015260405160e060020a63ffffffff8b16028152600160a060020a039788166004820152602481019690965293861660448601529185166064850152608484015260a483015290911660c482015260e4016020604051808303818588803b151561011e57600080fd5b6125ee5a03f1151561012f57600080fd5b505050506040518051915050600160a060020a03821663b6b55f258260006040516020015260405160e060020a63ffffffff84160281526004810191909152602401602060405180830381600087803b151561018a57600080fd5b6102c65a03f1151561019b57600080fd5b50505060405180519050507f685f78e58c77fc886617d04d1b1bfcd5ab9f99c4530883bc89765909f18a1606348c8c8c8c303388604051978852600160a060020a03968716602089015294861660408089019190915260608801949094529185166080870152841660a086015290921660c084015260e0830152610100909101905180910390a15050505050505050505050565b81600160a060020a03811663095ea7b3858460006040516020015260405160e060020a63ffffffff8516028152600160a060020a0390921660048301526024820152604401602060405180830381600087803b151561028d57600080fd5b6102c65a03f1151561029e57600080fd5b5050506040518051905015156102b357600080fd5b505050505600a165627a7a723058202dd81283a123242aa1a5081b68be1115cfa6ffde9e792e24a5b599a85edaf1fb0029",
  "source": "pragma solidity ^0.4.11;\n\nimport \"./KyberInterface.sol\";\nimport \"./ERC20Interface.sol\";\nimport \"./OnlyToken.sol\";\n\ncontract SwapEth \n{\n  event Swap(uint value, address kyberInterfaceAddress , address srcToken,\n  uint srcAmount, address destToken, address thisAddress,address msgAddress, uint amountReturn );\n\n  function swapEthOnKyber(address _kyberInterfaceAddress, ERC20 srcToken, uint srcAmount, ERC20 destToken, \n  uint maxDestAmount, uint minConversionRate, address walletId, address onlyTokenAddress)public payable \n  {\n    KyberInterface aKyberInterface = KyberInterface(_kyberInterfaceAddress);\n    OnlyToken aOnlyToken = OnlyToken(onlyTokenAddress);\n    uint amountReturn = aKyberInterface.trade.value(msg.value)(\n        srcToken,\n        srcAmount,\n        destToken,\n        this,\n        maxDestAmount,\n        minConversionRate,\n        walletId\n    );  //https://github.com/KyberNetwork/smart-contracts/blob/master/integration.md\n    aOnlyToken.deposit(amountReturn);\n    Swap(msg.value, _kyberInterfaceAddress, srcToken,\n    srcAmount, destToken, this, msg.sender, amountReturn);\n  }\n\n  function approveOnlyToken(address onlyTokenAddress, address destToken, uint maxDestAmount)\n  {\n    ERC20 omgToken = ERC20(destToken);\n    require(omgToken.approve(onlyTokenAddress, maxDestAmount));\n  }\n\n  function() payable {} //Fallback Function\n}\n",
  "sourcePath": "/home/hantong/Documents/kyber-integration-test/contracts/SwapEth.sol",
  "compiler": {
    "name": "solc",
    "version": "0.4.19+commit.c4cbbb05.Emscripten.clang"
  },
  "schemaVersion": "2.0.0",
  "updatedAt": "2018-03-07T15:27:43.840Z"
}